:020000040800F2
:100000003016002001010008BD3F0008C73100087C
:10001000DD3800086D0F00081D4D000800000000CD
:10002000000000000000000000000000254600085D
:10003000A90F000800000000354500082746000809
:100040001B0100081B0100081B0100081B01000820
:100050001B0100081B0100081B0100081B01000810
:100060001B0100081B0100081B0100081B01000800
:100070001B0100081B0100081B010008710F00088C
:100080001B0100081B0100081B0100081B010008E0
:100090001B0100081B0100081B0100081B010008D0
:1000A0001B0100081B0100081B0100081B010008C0
:1000B0001B010008A9460008000000001B01000801
:1000C0001B01000800000000000000001B010008E8
:1000D00000000000114D00081B0100080000000096
:1000E0001B0100081B0100081B010008DFF80CD0F1
:1000F00000F04CFC00480047CD5B000830160020A3
:100100000648804706480047FEE7FEE7FEE7FEE7B1
:10011000FEE7FEE7FEE7FEE7FEE7FEE7A54600088E
:10012000ED000008202A04DB203A21FA02F0002129
:10013000704721FA02F3D040C2F1200291400843F7
:100140001946704740EA01039B0703D009E008C93C
:10015000121F08C0042AFAD203E011F8013B00F88C
:10016000013B521EF9D27047D2B201E000F8012BD8
:10017000491EFBD270470022F6E710B513460A4627
:1001800004461946FFF7F0FF204610BD30B505467E
:100190002A460B4612F8010B13F8014B08B1A04296
:1001A000F8D01CB1002802D06D1CF1E7284630BD04
:1001B000CAB2401E10F8011F8A4202D00029F9D1AC
:1001C00000207047421C10F8011B0029FBD1801A47
:1001D0007047F0B480EA0102D40F4200B2EB410F45
:1001E00002D20246084611464A0042D0C30DDDB293
:1001F000C1F3C752AD1A202D35DAC1F3160141F40F
:10020000000204B15242C5F1200602FA06F12A4169
:100210001044B3EBD05F23D0C4B1012DA0EBC35089
:1002200009DCF0BC4FF0004202EAC352DBB200F539
:10023000000000F0C8BA400000F1807000EBC3502D
:10024000A0F1807040EAD170490009E0490841EA14
:10025000C071A0EBC35000F50000400800EBC35094
:10026000F0BC00F0A7BA6142012202EB4101001B81
:10027000F6E7F0BC704781F00041AAE780F000404B
:10028000A7E780EA010210B502F00043400022D047
:100290004A001FD0010E01EB1261C0F35600C2F3F9
:1002A000560240F4000042F40002A0FB02200004C9
:1002B0007F39140400D0401C50EA124001D44000A1
:1002C000491EC2B20C0604EBD010401C4008802A24
:1002D00002D003E0002010BD20F00100002900DA68
:1002E0000020184310BD2DE9FE4F804681EA03002F
:1002F000C00F0C46009021F0004123F00045B8EB00
:100300000200A94105D24046214690461C460B46B4
:10031000024623F00040104347D0270DC7F30A00E0
:10032000C3F30A510290401A019040286BDAC3F3DC
:10033000130040F4801B0098924620B10023D2EBBA
:10034000030A63EB0B0B01985946C0F1400250467B
:1003500000F00FFA06460D4650465946019A00F045
:1003600017FA10EB08006141002487EA115284EA71
:10037000E7731A4340D0009A62B3019A012A4FEA08
:10038000075215DC001B61EB02014FF0004202EA4C
:100390000752CDE90042001C41F5801132462B4640
:1003A00000F04EFA03B0BDE8F08F40462146F9E771
:1003B000001B61EB0201001C41F5801300185B413A
:1003C0002018A2F5001747EB030140EAD570B619D3
:1003D0006D4111E06D084FEA360645EAC0754FEAF7
:1003E0000752001B61EB0201001C41F58011490816
:1003F0004FEA30000019514132462B4603B0BDE8A8
:10040000F04F00F00EBA0098012240000023D0EB1C
:10041000020263EBE073009821464FEAE074B8EB08
:10042000000061EB0401E9E783F000435BE781F042
:10043000004158E72DE9FE4F81EA030404F000442F
:1004400021F0004100944FF0000B23F0004350EAEC
:1004500001045ED052EA03045BD0C3F30A54C1F333
:100460000A552C44A4F2F3340194A0FB0254C1F3C6
:10047000130141F48011C3F3130343F4801301FB10
:10048000024400FB034E840A970A44EA815447EA77
:100490008357A4FB076802958D0A05FB07854FEA81
:1004A000932C04FB0C542705029D4FEA065847EA9B
:1004B0001637B5EB08056EEB070C870E920E47EA70
:1004C000811742EA8312A7FB0201B6EB0B0164EB32
:1004D00000042B0D43EA0C335E1844EB1C50DA4643
:1004E0005146E7FB0201C5F313044FEA0B3343EA1D
:1004F00014534FEA0432019C43EA0603A4F10C04AE
:100500000294009CCDE900B400F09AF903B0BDE874
:10051000F08F00200146F9E72DE9F04D81EA030450
:1005200004F0004B21F0004514464FF0000A23F080
:10053000004150EA050220D054EA01021DD0C5F363
:100540000A570246C5F31303C1F31300C1F30A5659
:1005500040F4801543F48013A7EB0608101BD64621
:1005600008F2FD3873EB050002D308F1010801E041
:1005700092185B41B8F1000F03DA00200146BDE894
:10058000F08D00204FF48011064684460EE0171BC4
:1005900073EB050705D3121B63EB050306434CEA17
:1005A000010C49084FEA300092185B4150EA0107FC
:1005B000EDD152EA030012D082EA040083EA050179
:1005C000084305D0101BAB4106D20122002306E0F0
:1005D00000224FF0004302E06FF0010253101AEBCB
:1005E00006004CEB085110EB0A0041EB0B01BDE893
:1005F000F04D00F016B9C10F80EAE0700844CA0758
:100600009623002100F0DFB896230022114600F067
:10061000DAB80EB540F2334102910021CDE9001164
:100620000A460B4600F00CF903B000BD20F0004074
:10063000C10DC0F3160040F400007F2901DA00204C
:100640007047962903DCC1F19601C840704796397E
:1006500088407047C1F30A5210B5C1F3130140F24C
:10066000FF3341F480119A4201DA002010BD40F2BC
:1006700033439A42A2F2334203DC5242FFF752FD67
:1006800010BD904010BD00F0004230F000400AD094
:10069000C10D01F56071C0F3160042EA0151C208B4
:1006A00040071143704700200146704701F00043A6
:1006B00030B421F0004150EA010206D00A0DA2F543
:1006C0006072C1F31301002A02DC30BC00207047C5
:1006D000440F44EAC104C100E01830BC00EBC25032
:1006E00000F068B830B50B460146002020220124F6
:1006F00009E021FA02F59D4205D303FA02F5491BF0
:1007000004FA02F52844151EA2F10102F1DC30BD05
:100710002DE9F05F0546002092469B468846064636
:10072000814640241BE02846414647462246FFF7C3
:10073000F9FC53465A46C01A914110D31146184647
:10074000224600F016F82D1A67EB01084F462246A4
:100750000120002100F00DF817EB00094E41201E8A
:10076000A4F10104DFDC484631462A464346BDE891
:10077000F09F202A04DB203A00FA02F100207047A3
:100780009140C2F1200320FA03F3194390407047CF
:10079000202A06DBCB17203A41FA02F043EAE07345
:1007A00006E041FA02F3D040C2F120029140084332
:1007B000194670470029A8BF7047401C490008BF70
:1007C00020F00100704710B4B0FA80FC00FA0CF081
:1007D00050EA010404BF10BC704749B1CCF12004B9
:1007E00021FA04F411FA0CF118BF01212143084346
:1007F000A3EB0C01CB1D4FEA00614FEA102042BF72
:10080000002010BC704700EBC35010440029A4BF67
:1008100010BC7047401C490008BF20F0010010BC0C
:10082000704710B5141E73F1000408DA401C41F142
:10083000000192185B411A4301D120F0010010BD64
:100840002DE9F04D92469B4611B1B1FA81F202E0DA
:10085000B0FA80F220329046FFF78BFF04460F4635
:1008600040EA0A0041EA0B0153465A46084313D0B6
:10087000114653EA010019D0C8F140025046FFF773
:1008800051FC05460E46504659464246FFF771FF59
:10089000084305D0012004E020463946BDE8F08D2C
:1008A0000020054346EAE0762C4337430A98630567
:1008B000E40AA0EB08000022FD0A44EA47540A308B
:1008C00002D500200146E9E7010510196941DDE97B
:1008D000084500196941BDE8F04DA2E770B521F067
:1008E000004303430CD0C1F30A550024D5EB0405A3
:1008F00064EB0403D617AD1AB34102DB00200146B6
:1009000070BD201841EB025170BD0EB5C10F80EAD9
:10091000E0700844CA07002140F233438DE80E001E
:100920000A460B46FFF78CFF03B000BDC1F30A5225
:10093000C1F3130140F2FF3341F480119A4202DA0D
:1009400000200146704740F233439A42A2F23342FC
:1009500002DC5242FFF7E6BBFFF70BBF30B5041EC7
:1009600071F1000404DB4FF00044404264EB0101EC
:10097000141E73F1000405DB1C464FF00043524285
:1009800063EB0403994208BF904230BD064C074D0B
:1009900006E0E06840F0010394E80700984710344F
:1009A000AC42F6D3FFF7A6FB106A0008306A0008D5
:1009B0002DE9F04D00231A461B1A8A4103DB002063
:1009C0000146BDE8F08DC1F30A52C1F3130141F4B1
:1009D00080154FF0000BD10702D100186D41521E57
:1009E0000027044640F2FF11384601EB620A3E46FA
:1009F0008046024600204FF48011FFF793FBC21996
:100A00007141BB1846EB0100B4EB030C75EB000C15
:100A100004D3E41A65EB000517460E46241908F1C5
:100A200001006D4180463428E3DDF91946EB0600EC
:100A3000091BA84103D24FF0FF32134601E0002208
:100A400013461BEB070046EB0A51BDE8F04DFFF7DC
:100A5000E8BE70B58C1810F8015B15F0070301D1E2
:100A600010F8013B2A1106D110F8012B03E010F811
:100A7000016B01F8016B5B1EF9D12B0705D4002334
:100A8000521E0DD401F8013BFAE710F8013BCB1AD6
:100A9000921C03E013F8015B01F8015B521EF9D5CB
:100AA000A142D8D3002070BD70B50446206881688B
:100AB000C943C90716D1816821F00101816001F0A5
:100AC00099F8054609E001F095F8401B022804D981
:100AD00020688068C043C00706D020688068C04393
:100AE000C007F0D0002070BDA06A40F01000A062E6
:100AF000E06A40F00100E062012070BDF8B50446F4
:100B00000026009620688168C943C9072FD08168F4
:100B100041F001018160174817490068B0FBF1F00E
:100B2000009002E00098401E009000980028F9D143
:100B300001F060F8054615E001F05CF8401B022862
:100B400010D920688068C043C0070BD0A06A40F06D
:100B50001000A062E06A40F00100E06284F82460C6
:100B60000120F8BD20688068C043C007E4D10020A0
:100B7000F8BD0000BC0B002040420F0070B50446D9
:100B80000020215C552903D0401CC0B22028F8D396
:100B90003C4D202804D02044801C02F035FB286006
:100BA0000020215C492903D0401CC0B22028F8D382
:100BB000202804D02044801C02F026FB686000201E
:100BC000215C502903D121184978412903D0401CC8
:100BD000C0B22028F4D3202804D02044C01C02F046
:100BE00013FBA8600020215C502903D1211849780B
:100BF000462903D0401CC0B22028F4D3202804D0BA
:100C00002044C01C02F000FBE8600020215C452964
:100C100003D121184978412903D0401CC0B22028B3
:100C2000F4D3202804D02044C01C02F0EDFA28613F
:100C30002868FFF728FD02460B4613A004F00EF9C2
:100C40006868FFF720FD02460B4612A004F006F983
:100C5000A868FFF718FD02460B4611A004F0FEF845
:100C6000E868FFF710FD02460B4610A004F0F6F806
:100C70002869FFF708FDBDE8704002460B460EA04C
:100C800004F0ECB8E40F002055203D20252E3266FC
:100C90000D0A000049203D20252E32660D0A000075
:100CA0005041203D20252E32660D0A005046203D41
:100CB00020252E32660D0A004541203D20252E328A
:100CC000660D0A002DE9F041054600243D4E2846F8
:100CD00056F82410FFF75AFA18B9641CE4B2082C2D
:100CE000F5D32A46214638A004F0B8F8354F3B4EDC
:100CF000683F07F11808092C4FD2DFE804F0050A15
:100D00000F14191E23232F00A81C02F07DFA306057
:100D100043E0A81C02F078FA70603EE0E81C02F0A4
:100D200073FAB06039E0E81C02F06EFAF06034E06B
:100D3000E81C02F069FA30612FE0E81C02F044FA86
:100D400038702AE003F05EFA0220F87103F02AFD01
:100D500023A003F0AFF903F001FC1EE03A2128467E
:100D6000FFF726FA401C02F04FFAC8F800007C2179
:100D70002846FFF71DFA401C02F046FAC8F80400A6
:100D8000294618A004F06AF80120387203F00AFD21
:100D900013A003F08FF903F0E1FBD8F80000FFF790
:100DA00072FC02460B4613A004F058F8D8F8040071
:100DB000FFF769FCBDE8F04102460B460DA004F0C8
:100DC0004DB80000100B0020693A256452585F446A
:100DD0004154413A25730D0A00000000E40F002041
:100DE0004F4B00000D0A64617461203D2025730D96
:100DF0000A0000005650545F44617461203D202574
:100E00002E32660D0A00000010B503F0FBF90A4906
:100E100000200870094908700949087009490870DC
:100E20000949087009490A4A087800EB400002EBBA
:100E300080000079087010BDAD0A0020A90A0020CA
:100E4000AA0A0020AB0A0020B00A0020400B0020B4
:100E5000480B002002490120087002A003F0FEBFE9
:100E6000410B0020546F67676C650D0A000000009D
:100E700010B50A480A49007800EB400011F820003C
:100E8000012809D103F0BEF90648017806A003F055
:100E9000E5FF07490420087010BD0000400B00204A
:100EA000480B0020AD0A002049443A25640D0A0091
:100EB000AF0A002070B51E4D1E491F4C287800EB6C
:100EC000400211F82210002909D00125012914D06F
:100ED000032821D0042801D11848057070BD03F003
:100EE00091F92078401C2870002020701449087067
:100EF000144908701449087070BD217813A003F0DC
:100F0000ADFF03F07FF91348057013480178BDE881
:100F1000704012A003F0A2BF13490878012804D042
:100F20000228E9D10320087070BD0220087070BD4E
:100F3000400B0020480B0020AD0A0020B10A002021
:100F4000A90A0020AA0A0020AB0A002049443A2539
:100F5000640D0A00AF0A0020AE0A0020414443207D
:100F60003D2025640D0A0000B00A0020FEE70000C5
:100F7000014800F00FBC0000E811002030B590F8E7
:100F800040500124AC40C56B6C60046863604368EA
:100F9000102B04D0036899600068C26030BD0368FC
:100FA0009A600068C16030BD7047000010B5202114
:100FB0000348FFF7E0F802490020088410BD000054
:100FC0002010002010B5124801F01CFF11480068E5
:100FD00040681149C0F12002088C62F30E0040F411
:100FE0000040C0F30E034FF4003404EBF0304FEA3E
:100FF000704000220884CA540848016909B10648B3
:101000008847BDE8104020220349014801F0C5BED1
:10101000A0110020E811002020100020880B0020E3
:1010200010B5044620220449044801F0B6FEFFF73B
:10103000BDFF0348046110BD20100020A011002056
:10104000880B002010B50749098C0A0408D5C1F3A4
:101050000E020449FFF776F8FFF7A8FF012010BD44
:10106000002010BD2010002072B6FEE770B50646C5
:10107000002500240DE0194800F0B4FA3221174889
:1010800000F00AFA18B9154800F04AF90544641C42
:10109000A4B2B442EFD3B5FBF6F0FFF7B5FAFFF711
:1010A000F2FA0F4A0F4BFFF7C5F9FFF7FFFA0E49A7
:1010B000FFF7E7F8FFF7BAFAFFF7ABFA00220B4B9E
:1010C000FFF7B8F900220A4BFFF7AEF9FFF7C2FAB3
:1010D000642801D3642070BDC0B270BD44100020EC
:1010E0004E1BE8B4814E5B3F0000C8420000F43F55
:1010F00000C079404FF0FF30084909684A6A002A69
:101100000AD00868C0F3001008B1002000E00120F8
:10111000034B00221A604A62704700001011002041
:10112000440B0020F8B504460026009694F82400ED
:1011300001280CD0012084F824002046FFF7B4FCDD
:101140002046FFF7DBFC0746380002D05DE00220B6
:10115000F8BDA06A20F4885040F00200A06202208E
:1011600000F094FF2B490968B1FBF0F040000090BB
:1011700002E00098401E009000980028F9D12068F5
:10118000816841F00801816000F034FD054612E0FD
:1011900000F030FD401B0A280DD920688068000748
:1011A00009D5A06A20F0020040F01000A06284F887
:1011B00024600120F8BD206880680007E8D420681A
:1011C000816841F00401816000F014FD054612E0E1
:1011D00000F010FD401B0A280DD9206880684007E8
:1011E00009D5A06A20F0020040F01000A06284F847
:1011F00024600120F8BD206880684007E8D4A06A18
:1012000020F0020040F00100A06284F8246038461B
:10121000F8BD0000BC0B0020F8B5002300250095A8
:1012200090F82420012A12D0012280F824204A6854
:101230001F26072A0DD20468676B521E02EB82023A
:101240009640B7430E689640374367631AE0022022
:10125000F8BD0D2A0BD20468276BD21F02EB820265
:101260009640B7430E689640374327630AE0046808
:10127000E76A0D3A02EB82029640B7430E68964049
:101280003743E7620A6807260A2A0BD30468E7682F
:101290000A3A02EB42029640B7438E6896403743C3
:1012A000E76009E00468276902EB42029640B74311
:1012B0008E689640374327610A68102A01D0112AA8
:1012C00023D1144C0268A2421AD1946824021CD47F
:1012D000946844F4000494600968102915D10E49FB
:1012E0000E4A0968B1FBF2F101EB8101490000915E
:1012F00002E00099491E009100990029F9D104E00B
:10130000816A41F020018162012380F8245018464F
:10131000F8BD000000240140BC0B002040420F003B
:101320000068C06C704700002DE9F04104460027BA
:101330000025002C03D0A06A002618B108E0012087
:10134000BDE8F081E66284F82460204600F078F879
:101350002046FFF7A9FBA16AC90600D428B1A06AFC
:1013600040F01000A0620120EAE7A16A21F4885150
:1013700041F00201A1626268E169237B0A4347EA06
:1013800043010A43A1684FF48077B94208D001298C
:1013900006D0002194F814C0BCF1010F02D00AE07D
:1013A0003946F7E7F3B1A36A43F02003A362E36A87
:1013B00043F00103E3622368D3F804C02CF4694CC2
:1013C0004CEA010CC3F804C021688B68DFF868C0E0
:1013D00003EA0C0313438B60A168B94209D00129C9
:1013E00007D009E0A3695B1E41EA433141F4006183
:1013F000E1E7218A491E0D052168CB6A23F47003B9
:101400002B43CB62216889680C4B1940914207D16C
:10141000E662A16A21F0020141F00101A1628FE7B9
:10142000A06A20F0020040F01000A062E06A40F0E4
:101430000100E062012083E7FDF7E1FFFE0E1FFFE0
:1014400000B585B0002101910291039104910068DB
:101450000E49884218D10E48816941F400718161BA
:10146000816901F400710091816941F00401816199
:10147000806900F004000090042001900320029095
:1014800001A9044800F0B8FA05B000BD00240140ED
:1014900000100240000801402DE9F84304460D46C3
:1014A0004FF00008CDF8008000F0A4FB064620684D
:1014B0008168C90508D5A06A40F02000A06284F8C0
:1014C00024800120BDE8F8834168C90503D4C06ABF
:1014D00010F4700F31D0022000F0D8FD3E490968A9
:1014E000B1FBF0F7206801693C4A11424FEA620201
:1014F0004FEAA21326D1C1684FEA621C11EA0C0F11
:1015000020D1016911422CD1C068184229D1142080
:101510002AE0681C11D025B100F06CFB801BA842AA
:101520000BD920680068800707D4A06A40F0040047
:10153000A06284F824800320C4E720680068800744
:10154000E7D52CE00169114202D1C168194206D0E9
:10155000026923490A4206D1C068084203D15420D7
:1015600002E0292000E0FC20474315E0681C10D071
:1015700025B100F03FFB801BA8420AD90098B84271
:1015800007D2A06A40F00400A06284F824800320FF
:1015900098E70098401C00900098B842E6D3216874
:1015A0006FF012000860A06A40F40070A06220682A
:1015B0008068C0F3424007280CD1207B50B9A06A54
:1015C00020F48070A062A06AC00403D4A06A40F036
:1015D0000100A062002075E7BC0B00202449922482
:1015E0004992240070B5044694F8240001280CD0D8
:1015F000012084F824002046FFF780FA01460022EB
:1016000029B184F82420084670BD022070BDA06A6C
:1016100040F20123984340F48070A062234D20687B
:10162000234BA84218D11E6816F4702F14D0A66A56
:1016300046F48016A6621E68760505D5A66A26F4CD
:10164000005646F48056A662A66AF60412D5E66AEB
:1016500026F00606E6620EE0A66A26F48016A6626A
:1016600046687605F0D5A66A26F4005646F48056FC
:10167000A662E9E7E26284F824206FF002020260C9
:1016800020688268C2F34242072A05D1A84208D1E5
:101690001A6812F4702F04D0826842F480128260BB
:1016A000B1E7826842F4A0028260ACE70028014002
:1016B0000424014010B590F821100022022905D021
:1016C0000421816380F82020012010BD01680B688F
:1016D00023F00E030B6001680B6823F001030B601D
:1016E00090F84030C46B012101FA03F3636080F885
:1016F000211080F82020104610BD000010B50024F5
:1017000090F82110022903D00421816301243DE0D7
:1017100001680A6822F00E020A6001680A6822F075
:1017200001020A601A4A0168914201D1012121E0B7
:10173000174A1432914201D110211BE0144A283279
:10174000914201D1891515E0114A3C32914201D1F3
:1017500089140FE00E4A5032914202D14FF4803189
:1017600008E00B4A6432914202D14FF4801101E04B
:101770004FF08071064A083A5160012180F821102B
:10178000002180F82010416B01B18847204610BD30
:10179000080002402DE9F05FC16B0A6801680B6820
:1017A000046C4FF0040A0AFA04FA4E4D4E4E4F4FA5
:1017B000DFF83CC1DFF83C81DFF83C911AEA020F08
:1017C00031D05FEA437A2ED50A68920603D40A68BC
:1017D00022F004020A600168A94201D1042119E043
:1017E000B14201D1402115E0B94202D14FF48061EC
:1017F00010E0614502D14FF480410BE0414502D138
:101800004FF4802106E0494502D14FF4800101E008
:101810004FF08061334A083A5160C16A00295FD0B5
:10182000BDE8F05F08474FF0020E0EFA04FE1EEA14
:10183000020F4FF0000A4FF0010B35D05FEA837EB4
:1018400032D50A68920605D40A6822F00A020A60B4
:1018500080F821B00168A94201D1022119E0B1420A
:1018600001D1202115E0B94202D14FF4007110E0FE
:10187000614502D14FF400510BE0414502D14FF4D4
:10188000003106E0494502D14FF4001101E04FF06C
:101890000071144A083A516080F820A0816A00293A
:1018A0001ED0BDE8F05F08470825A540154217D0B7
:1018B0001A0715D50A6822F00E020A6090F8401047
:1018C000C26B0BFA01F15160C0F838B080F821B05A
:1018D00080F820A0016B002902D0BDE8F05F084726
:1018E000BDE8F09F080002401C00024030000240AA
:1018F00044000240580002406C00024030B500280D
:1019000027D0001D144A50F8041C14230A44B2FBCB
:10191000F3F29200C263114A8263022242770A689C
:1019200043F6F0739A43D0E900342343D0E90245EB
:101930002C43234304692343446923438469234399
:1019400013430B600021416301224277017700209D
:1019500030BD012030BD0000F8FFFDBF0000024097
:1019600070B50446002594F8200001280CD0012011
:1019700084F8200094F821600020012E06D084F81D
:1019800020000225284670BD022070BD022684F882
:101990002160A0632068066826F0010606602046E4
:1019A000FFF7ECFAE06A28B12068016841F00E0107
:1019B000016009E02068016821F0040101602068ED
:1019C000016841F00A0101602068016841F00101ED
:1019D0000160D7E770B5044600F00CF90546601CBD
:1019E00002D004480078044400F004F9401BA042EF
:1019F000FAD370BDB00B00202DE9F84F002400236E
:101A0000DFF8B8914FF00F08A9F1040B09F1040AAF
:101A1000ABF1040ECAE00127A7403A40BA4275D1A3
:101A2000DFF89CC14D68A5EB0C0665452BD00DDC9D
:101A3000032D34D005DC35B3012D19D0022D2FD163
:101A40001BE0112D16D0122D2AD119E0B6F5881FF2
:101A500019D006DCB6F5803F15D0B6F5801F1FD132
:101A600011E0B6F5001F0ED0B6F5041F18D10AE03C
:101A7000CB6815E0CB681B1D12E0CB6808330FE084
:101A8000CB680C330CE08B6823B1012B04D0082306
:101A9000476105E0042303E00823076100E0002319
:101AA000FF2A01D8054601E000F1040502D84FEAFB
:101AB000840603E0A4F108064FEA86062F6808FAB8
:101AC00006FC27EA0C0703FA06F647EA06072F602A
:101AD0004D68ED0069D53B4DAE6946F00106AE613B
:101AE000AD6905F001050095374D24F0030677191F
:101AF000BE68A5072D0F08FA05FC26EA0C06DFF8DC
:101B0000CCC0604503D14FF0000C10E04DE0DFF891
:101B1000C0C0604502D14FF0010C08E0DFF8B4C04E
:101B2000604502D14FF0020C01E04FF0030C0CFABB
:101B300005FC4CEA060CC7F808C04D68ED0205D557
:101B4000D9F800501543C9F8005004E0D9F8005006
:101B50009543C9F800504D68AD0205D5DAF800503C
:101B60001543CAF8005004E0DAF800509543CAF86B
:101B700000504D68AD0305D5DBF800501543CBF898
:101B8000005004E0DBF800509543CBF800504D685E
:101B9000ED0305D5DEF800501543CEF8005004E003
:101BA000DEF800509543CEF80050641C0A6832FA03
:101BB00004F57FF430AFBDE8F88F00000804014061
:101BC0000000111000100240000001400008014018
:101BD000000C0140001001408068084201D0012043
:101BE000704700207047002A01D001617047090446
:101BF000016170470148806870470000B00B002009
:101C000070B50446002C04D094F83D00002510B1B6
:101C100006E0012070BD84F83C50204600F05EF9DB
:101C2000242084F83D002068016821F00101016052
:101C30002068016841F4004101602068016821F4D6
:101C40000041016000F0ACFB4F4B6168994203D842
:101C50004E49884203D304E04D49884201D2012015
:101C600070BD4C49B0FBF1F12268566826F03F0682
:101C70000E43566062689A4201D8491C07E04FF44F
:101C8000967251434FF47A72B1FBF2F1491C22680B
:101C9000166A26F03F06314311626168994210D8F6
:101CA0004900401EB0FBF1F2521CC2F30B02042AA1
:101CB00001D2042022E0B0FBF1F0401CC0F30B0085
:101CC0001CE0A268F2B301EBC10303EB0116431E53
:101CD000B3FBF6F35B1C43F480431B0549D092B37E
:101CE00001EBC10202EB0111401EB0FBF1F0401C00
:101CF000C0F30B0040F4804040F400402168CA6902
:101D00004CF6FF739A431043C861D4E907100143AE
:101D10002068026822F0C00211430160D4E9030187
:101D200001432068826848F2FF339A43114381607F
:101D3000D4E9051001432068C26822F0FF02114374
:101D4000C16001E00EE016E02068016841F0010189
:101D500001602564202084F83D00256384F83E500E
:101D6000002070BD01EB4106431EB3FBF6F35B1C84
:101D7000B3E70120C2E701EB4101401EB0FBF1F0E7
:101D8000401CC0F30B00B7E7A086010080841E0052
:101D900000093D0040420F002DE9FF4F83B004468B
:101DA000DDE911988A469346109DFFF723FF06460A
:101DB00094F83D00202803D0022007B0BDE8F08F42
:101DC0001923012243492046009601F01FFB08B168
:101DD0000220F2E794F83C00012807D0012084F8A3
:101DE0003C0020680168C90702D005E00220E4E752
:101DF000016841F0010101602068016821F400617F
:101E00000160212084F83D00402084F83E00002736
:101E100027646562A4F82A90608D20852E48E062D0
:101E2000CDE900865A4651462046069B01F060FAED
:101E300080B30120C1E732464146204601F0A0FBB5
:101E400048B1206C042804D12068016841F4007175
:101E500001600120B1E7606A216800780861656A65
:101E60006D1C6562208D401E80B22085618D491EEB
:101E7000618523685969C94349070BD450B1287853
:101E80001861606A401C6062208D401E2085608D54
:101E9000401E6085208D0028CDD132464146204627
:101EA00001F088FA48B1206C042804D12068016848
:101EB00041F40071016001207FE71F3454F81F0CCA
:101EC000016841F4007101602020A077E77767770F
:101ED000002072E7020010000000FFFF10B586B07E
:101EE0000021029103910491059100680F498842F5
:101EF0001AD10F4CA06940F00800A061A06900F061
:101F000008000190C0200290122003900320059049
:101F100002A90848FFF770FDE06940F40010E06195
:101F2000E06900F40010019006B010BD00540040BC
:101F300000100240000C0140024881680278114400
:101F400081607047B00B002010B50748016841F070
:101F500010010160032000F077F80F2000F006F870
:101F600000F026F8002010BD0020024070B50446A5
:101F70000D4D4FF47A712878B1FBF0F00B490968E8
:101F8000B1FBF0F000F014FC08B1012070BD102C82
:101F900007D200222146501E00F036F86C60002067
:101FA00070BD012070BD0000B00B0020BC0B0020F4
:101FB00008B50C48816941F001018161816901F036
:101FC00001010091C16941F08051C161C06900F017
:101FD000805000900449486820F0E06040F00070B4
:101FE000486008BD0010024000000140002809DBE5
:101FF00000F01F02012191404009800000F1E02023
:10200000C0F8001170470000F0B40D460D4B1B687E
:10201000C3F30223C3F10704042C00D90424191DBF
:10202000072901D2002300E0DB1E012606FA04F195
:10203000491E294099409E40761E16403143F0BC0F
:1020400002F044BF0CED00E000F00701054A106803
:102050004FF6FF03184040EA01200349084310608F
:10206000704700000CED00E00000FA05054801682B
:1020700041F0020101600448016841F0040101607F
:1020800030BF70470070004010ED00E010B5014611
:102090000020244C012922D0022939D010291DD139
:1020A00061682268D20119D51F48C1F38342805C60
:1020B000C9030AD561681C4AC1F34041921E515CB4
:1020C0001A4AB2FBF1F1484301E0194948436168FB
:1020D000490203D440000321B0FBF1F010BD226A95
:1020E000C2F30121012903D1920701D5C80310BD14
:1020F000022905D1626A920702D549F6404010BD17
:102100000329FCD121688903F9D54FF2244010BD81
:1021100000F056F96168C1F38131491C4900B0FBF8
:10212000F1F010BD001002409568000800127A001E
:1021300000093D002DE9F8430446DFF8F8802078D7
:10214000C0075FD00027D8F81C00C0000BD4D8F817
:102150001C0040F08050C8F81C00D8F81C0000F0AB
:10216000805000900127344D2868C00512D428689B
:1021700040F480702860FFF73DFD064607E0FFF75A
:1021800039FD801B642802D90320BDE8F883286844
:10219000C005F4D5D8F8200000F4407010B3A18831
:1021A00001F4407181421DD0D8F8200020F4407025
:1021B000224901220A6000220A60C8F82000C007F4
:1021C00010D0FFF717FD054641F2883606E0FFF70D
:1021D00011FD401BB04201D90320D6E7D8F82000FA
:1021E0008007F4D5D8F82000616820F440700843D7
:1021F000C8F82000012F05D1D8F81C0020F080502D
:10220000C8F81C002078800707D5D8F80400A1681A
:1022100020F440400843C8F804002078C00607D5E1
:10222000D8F80400E16820F480000843C8F80400EE
:102230000020AAE700100240007000404004424223
:102240002DE9F04704460D46002C17D0DFF8308109
:10225000D8F8000000F00700A84211D2D8F800001A
:1022600020F007002843C8F80000D8F8000000F06C
:102270000700A84204D00120BDE8F0870120FBE759
:102280002068404E810712D5400703D5706840F49E
:10229000E06070602078000703D5706840F46050FB
:1022A00070607068A16820F0F000084370602078CA
:1022B000C0072CD06068012806D0022809D03168F8
:1022C00089070BD40120D7E73168890306D40120A0
:1022D000D2E73168890101D40120CDE7716821F08E
:1022E000030101437160FFF785FC074641F288391D
:1022F00006E0FFF77FFCC01B484501D90320BBE780
:102300007068616800F00C00B0EB810FF1D1D8F873
:10231000000000F00700A8420ED9D8F8000020F015
:1023200007002843C8F80000D8F8000000F00700B4
:10233000A84201D001209FE72078400705D57068AA
:10234000E16820F4E060084370602078000706D55B
:102350007068216920F4605040EAC100706000F0AC
:102360003FF87168084AC1F30311515CC84007493E
:10237000086007480068FFF7F9FD00207CE70000CF
:102380000020024000100240A5680008BC0B00209D
:10239000B40B00200148006870470000BC0B00200F
:1023A00000B5FFF7F7FF04494968044AC1F3022169
:1023B000515CC84000BD000000100240B568000834
:1023C00000B5FFF7E7FF04494968044AC1F3C22199
:1023D000515CC84000BD000000100240B568000814
:1023E0000E4B59680E4801F00C02042A11D0082A3D
:1023F0000FD10C48C1F38342805CC9030AD55968E8
:10240000084AC1F34041921E515C054A5043B0FB5B
:10241000F1F0704704494843704700000010024043
:1024200000127A008368000800093D002DE9F84F8A
:102430000446002C0ED02078D94DC0075ED06868C5
:10244000C0F3810001280BD06868C0F38100022826
:1024500003D00CE00120BDE8F88F6868C00306D502
:10246000286880034AD56068A8BB0120F3E760684C
:10247000B0F5803F11D0A8B1B0F5A02F1BD02868CF
:1024800020F480302860286820F48020286060686C
:1024900030B3FFF7AFFB06461EE0286840F48030FB
:1024A0002860F4E7286820F480302860286820F449
:1024B00080202860EBE7286840F4802028602868A6
:1024C00040F480302860E2E7FFF794FB801B64282B
:1024D00002D90320BFE711E028688003F4D50DE09E
:1024E000FFF788FB064606E0FFF784FB801B6428A5
:1024F00001D90320AFE728688003F5D42078DFF8FE
:10250000A48280074FF0010A4FF0000945D56868A2
:1025100010F00C0F07D06868C0F38100022812D1B8
:102520006868C0030FD42868800704D52069012893
:1025300001D001208FE72868616920F0F80040EAA7
:10254000C100286029E02069B8B1C8F800A0FFF7F1
:1025500051FB064606E0FFF74DFB801B022801D920
:10256000032078E728688007F5D52868616920F09E
:10257000F80040EAC10028600FE0C8F80090FFF7BB
:1025800039FB064606E0FFF735FB801B022801D920
:10259000032060E728688007F5D42078000726D557
:1025A0008148A16999B1C0F800A0FFF723FB064656
:1025B00006E0FFF71FFB801B022801D903204AE732
:1025C000686A8007F5D5012001F0B6FF0FE0C0F87A
:1025D0000090FFF70FFB064606E0FFF70BFB801BA2
:1025E000022801D9032036E7686A8007F5D42078ED
:1025F000400773D50026E869C00008D4E86940F0B8
:102600008050E861E86900F0805000900126DFF812
:102610009CB1DBF80000C00514D4DBF8000040F4E6
:102620008070CBF80000FFF7E5FA074606E0FFF7F9
:10263000E1FAC01B642801D903200CE7DBF8000095
:10264000C005F4D5E068012812D0B0B105281DD02E
:10265000286A20F001002862286A20F0040028621D
:10266000E06841F2883B28B3FFF7C4FA07461DE053
:10267000286A40F001002862F2E7286A20F0010091
:102680002862286A20F004002862E9E7286A40F0FE
:1026900004002862286A40F001002862E0E7FFF7A2
:1026A000A9FAC01B584501D90320D4E6286A80073F
:1026B000F5D50DE0FFF79EFA074606E0FFF79AFA18
:1026C000C01B584501D90320C5E6286A8007F5D408
:1026D000012E03D1E86920F08050E861E069A0B3E1
:1026E0006968C1F38101022946D0022805D0C8F8E3
:1026F0006090FFF77FFA04463AE0C8F86090FFF771
:1027000079FA064606E0FFF775FA801B022801D920
:102710000320A0E628688001F5D4206AB0F5803F48
:1027200005D16868A16820F4003008436860D4E9E6
:1027300008010843696821F4741108436860C8F807
:1027400060A0FFF757FA044607E026E0FFF752FAC9
:10275000001B022801D903207DE628688001F5D5F9
:102760001BE0FFF747FA001B022801D9032072E69D
:1027700028688001F5D410E001280CD06868226A2E
:1027800000F48031914204D1616A00F470108842F3
:1027900003D001205FE601205DE600205BE600003B
:1027A000001002400000424280044242007000409B
:1027B00010B5401EB0F1807F01D3012010BD4FF055
:1027C000E02460610F21601702F080FB0020A0610F
:1027D00007202061002010BD7047704770B590F849
:1027E0003C20012A22D0012680F83C60022280F899
:1027F0003D2002685468936824F070040D682543F6
:1028000055600B4C0268A24205D0B2F1804F02D055
:10281000084CA24204D123F0800349681943916017
:102820003C30467000210170002070BD022070BD58
:10283000002C01400004004010B50446002C03D0D9
:1028400094F83D0010B107E0012010BD002084F88D
:102850003C00204600F016F8022084F83D00211DBF
:10286000206801F027FF01203D3460726070A07085
:10287000E07020716071A071E07120722070002002
:1028800010BD000008B50068104A1149904208D1F7
:10289000886940F400608861886900F400600090F5
:1028A00008BD0C4A9042FBD1C86940F00200C861E3
:1028B000C86900F002000090002211461D20FFF7B9
:1028C000A3FBBDE808401D20FFF790BB002C014092
:1028D000001002400004004090F83D10012901D092
:1028E00001207047022180F83D100168CA6842F05B
:1028F0000102CA6000680C49884205D0B0F1804FDF
:1029000002D00A49884209D1816801F007010629ED
:1029100008D0016841F00101016003E0016841F065
:102920000101016000207047002C014000040040BC
:1029300070B50446002594F83C00012817D0012604
:1029400084F83C60022084F83D002068826822F010
:10295000770222F47F4282600868502838D00DDC6C
:10296000202853D005DC90B3102811D14EE002206E
:1029700070BD30284AD040280AD13DE0602831D0CF
:1029800070280CD0B0F5805F03D0B0F5005F12D096
:1029900001253C34667000202070284670BDCB684D
:1029A000D1E90121206801F0C8FE2068816841F06A
:1029B00077018160EDE7CB68D1E90121206801F062
:1029C000BCFE2068816841F480418160E1E71DE040
:1029D000CA684968206801F0C2FE5021206801F0F1
:1029E000B6FED6E7CA684968206801F0C9FE6021D2
:1029F000206801F0ACFECCE7CA684968206801F0A5
:102A0000AEFE4021206801F0A2FEC2E72268014626
:102A1000104601F09CFEBCE72DE9F04104460D464E
:102A2000002C03D094F83D0018B108E00120BDE867
:102A3000F081002084F83C00204600F045F8022098
:102A400084F83D002068816844F207029143816068
:102A5000211D206801F02EFE273454F8270C8268CF
:102A60008169066A2B68134340F203329143AF69D0
:102A7000AA6841EA07210A4340F60C418A434FF213
:102A8000F0018A43EF69E96842EA072211432A69A3
:102A90002F6A120142EA07320A4326F022066968C9
:102AA0006D6946EA05152943836054F8270C826155
:102AB00054F8270C01620120E077E0752076E0767B
:102AC0002077A0750020B2E700B585B00021019104
:102AD0000291039104910068B0F1804F18D10D4824
:102AE000C16941F00101C161C16901F001010091B9
:102AF000816941F004018161806900F00400009067
:102B0000032001900120039001A90348FEF774FF00
:102B100005B000BD001002400008014070B5044639
:102B200014F83E0F6278237965793E3C022600292D
:102B300004D004290DD001281CD115E0012801D1B1
:102B4000012B01D0012070BD84F83E6084F8426002
:102B500018E0012A01D1012D01D0012070BD84F8B7
:102B60003F6084F843600DE0012A03D1012B01D1BD
:102B7000012D01D0012070BD04F83E6F66702671F2
:102B800066713E3C91B1042916D0012200212068D3
:102B900001F0C6FD01220421206801F0C1FD20687A
:102BA000016841F001010160002070BD0122002197
:102BB000206801F0B5FDF2E701220421206801F050
:102BC000AFFDECE770472DE9F04104462068C56889
:102BD00006694FF00007B10714D5A90712D5F91EF1
:102BE00001610120207720688069800703D020469A
:102BF000FFF7E8FF05E0204600F081F8204600F0EE
:102C00007FF82777700717D5680715D521686FF00B
:102C100004000861022020772068806910F4407F5A
:102C200003D02046FFF7CEFF05E0204600F067F80E
:102C3000204600F065F82777300716D5280714D509
:102C400021686FF008000861042020772068C069BF
:102C5000800703D02046FFF7B5FF05E0204600F0CF
:102C60004EF8204600F04CF82777F00617D5E80616
:102C700015D521686FF010000861082020772068C2
:102C8000C06910F4407F03D02046FFF79BFF05E0AA
:102C9000204600F034F8204600F032F82777F0079D
:102CA00008D0E80706D021686FF0010008612046CF
:102CB00000F028F8300608D5280606D521686FF000
:102CC000800008612046FFF787FD700608D568067A
:102CD00006D521686FF040000861204600F05CF8DE
:102CE000B0060AD5A80608D521686FF02000086153
:102CF0002046BDE8F041FFF770BDBDE8F0817047A8
:102D00007047000070B51E49884235D11D4C2078AF
:102D1000401CC0B22070E188491C89B2E180628801
:102D2000521C92B26280A3885B1CA3800025B1F57F
:102D30002F7F0BD31449154B0E88042E02D30A267D
:102D40001E7001E001261E700D80E580C82A05D3A3
:102D500065800F4A117881B100211170052802D3D6
:102D600002F01AFF2570A088B0F57A7F04D30948D5
:102D70000168491C0160A58070BD0121EDE70000DC
:102D800058110020A60B0020B60A0020B30A00202C
:102D9000B20A0020440B0020704738B5044694F86E
:102DA0004200202801D0022038BD71B16AB1012053
:102DB000206300206063204601F030FF0346206B53
:102DC000012804D00123184638BD012038BD2068F1
:102DD00001684068009020680C3050E8001F41F006
:102DE000100140E80012002AF5D1ECE70068034921
:102DF000884202D10248C06800477047003801404D
:102E0000880B002010B5044620684069C0F3C0104C
:102E100094F84110212911D180B12068143050E874
:102E2000001F21F0800140E80012002AF5D1A06BBC
:102E300008B1FEF73FFC204601F021FE2068406902
:102E4000C0F3801094F84210222911D180B120687B
:102E5000143050E8001F21F0400140E80012002A21
:102E6000F5D1E06B08B1FEF725FC204601F0D3FD5B
:102E7000002010BD70470000F8B5044622681068B5
:102E8000D168536900F00F06002E08D1850606D5DB
:102E90008D0604D52046BDE8F84001F0FEBD0025B2
:102EA000002E66D003F0010601F49077374360D01E
:102EB000C20705D0CA0503D5626C42F00102626404
:102EC000420705D5DA0703D0626C42F00202626461
:102ED000820705D5DA0703D0626C42F0040262640F
:102EE000020707D501F02002324303D0626C42F0A2
:102EF00008026264626C002A31D0800604D588061C
:102F000002D5204601F0C9FD20684069C0F3801059
:102F1000616C090700D438B3204601F07CFD2068BD
:102F2000406940061CD52068143050E8001F21F08D
:102F3000400140E80012002AF5D1E06B60B1594928
:102F40004163E06BFEF7DAFB002808D0E06B416BD1
:102F500001B0BDE8F04008472046FFF78BFFF8BD01
:102F60002046FFF787FFF8BD2046FFF783FF656423
:102F7000F8BD236B012B7DD1C3067BD5CB067ED557
:102F800010685068009050694FF0200340064FF0E1
:102F9000020643D5E16B0868406880B20028E7D09C
:102FA000A28D8242E4D9E085886920282DD020684E
:102FB0000C3050E8001F21F4807140E80012002A14
:102FC000F5D12068143050E8001F21F0010140E8DD
:102FD0000012002AF5D12068143050E8001F21F0BB
:102FE000400140E80012002AF5D184F84230256300
:102FF00020680C3050E8001F21F0100140E800125A
:10300000002AF5D1E06BFEF755FB6663A08DE18DDC
:10301000401A81B22046FFF7E9FEF8BDA08DE18D90
:10302000401A81B2E08D0028F7D00029F5D0206841
:103030000C3050E8002F22F4907240E80027002F57
:10304000F5D12068143050E8002F22F0010240E84A
:103050000027002FF5D184F84230256320680C301A
:1030600050E8002F22F0100240E80023002BF5D199
:10307000666300E003E02046FFF7B8FEF8BD0206F5
:1030800006D50A0604D52046BDE8F84001F010BE7A
:103090004006F3D54806F1D52046BDE8F84001F0DA
:1030A000E1BC00001949000870B50446002C04D0AA
:1030B00094F84100002510B106E0012070BD84F8AD
:1030C0004050204600F024F8242084F84100206875
:1030D000C16821F40051C160204601F043FD206821
:1030E000016921F4904101612068416921F02A01C0
:1030F00041612068C16841F40051C16065642020CD
:1031000084F8410084F842006563002070BD00002F
:1031100070B586B006460024029403940494059486
:103120002249306888423ED12149886940F4804074
:103130008861886900F480400190886940F004004B
:103140008861886900F0040001904815029002200F
:10315000039003200590174D02A92846FEF74CFC6A
:10316000281502900394049402A92846FEF744FC13
:10317000124D114828606C60AC608020E8602C61C2
:103180006C61AC61EC612846FEF7B8FB08B1FDF755
:103190006BFFF5636E62002211462520FEF734FFB7
:1031A0002520FEF723FF06B070BD00000038014067
:1031B000001002400008014058000240E8110020C1
:1031C000704770477047FEE710B500210024027871
:1031D0002D2A01D1401C01240278303A092A07D94E
:1031E0000FE001EB810149003039114449B2401C24
:1031F0000278A2F13003092BF3D9012C01D1484206
:1032000041B2084610BD00002DE9F04105462946AF
:1032100026A001F023FE28783038092843D800245E
:103220000027DFF894800CE041462046FDF729F89E
:1032300004463046FDF7DFF92146FCF7CAFF044695
:103240006D1C2E78303E092EEED928782E2814D108
:103250006D1C0EE041462046FDF713F8044630464B
:10326000FDF7C9F92146FCF7B4FF04466D1C7F1C2D
:10327000FFB22E78303E092EECD93846FDF7C9F959
:1032800002460B4600200D4902F0D6FD05460E46CB
:103290002046FDF7F8F92A463346FDF73DF9BDE82B
:1032A000F041FDF703BA0020BDE8F081646174616C
:1032B0003D2025730D0A000000002041000024403D
:1032C00001684A69D24352050FD46FF480624A61A3
:1032D000002140F8301F202242738173026942F0BE
:1032E0000402026101730120704700207047000052
:1032F0002DE9F8430446DDE908970D461646984641
:103300002068016841F4807101604B4600224FF053
:1033100001112046009700F079F848B12068006854
:10332000C00502D54FF4007020640320BDE8F88387
:10333000216805F0FE0008613B464A461C492046CC
:1033400000F0BAF808B10120F0E72068416980690F
:1033500000903A464946204600F012F948B1206CE8
:10336000042804D12068016841F400710160012043
:10337000DCE7F5B2B8F1010F0CD02168300A086122
:103380003A464946204600F0FBF868B1206C042814
:1033900003D007E02068056108E02068016841F477
:1033A000007101600120C1E7206805610020BDE7D0
:1033B0000200010070B504460D4616461FE0204687
:1033C000FFF77EFF08B1012070BD681C17D0FEF723
:1033D00011FC801BA84200D88DB920684069C04309
:1033E00040070CD5002044F8300F20216173A073F2
:1033F000216941F0200121612073012070BD206806
:103400004069C0434007DAD4002070BD2DE9F04781
:103410000446DDF820900D4690461E46C5F307474A
:103420002FE0701C2DD0FEF7E5FBA0EB0900B042A9
:1034300000D836BB012F17D02068806925EA00002C
:103440000004000C1BD0002040451AD1002044F895
:10345000300F20216173A073216941F020012161A7
:1034600020730120BDE8F0872068406925EA00004C
:103470000004000C01D00020E6E70120E4E7012071
:10348000E2E7012F0BD02068806925EA00000004E4
:10349000000C0FD000204045C3D00020E2E7206898
:1034A000406925EA00000004000C01D00020F2E78A
:1034B0000120F0E70120EEE72DE9F04704460D4634
:1034C000164698464FF000094FF0200AC5F307470B
:1034D00043E020684069C043400517D42068016874
:1034E00041F40071016021686FF480604861C4F8A4
:1034F000309084F83DA084F83E90206C40F00400A9
:10350000206484F83C900120BDE8F087701C24D032
:10351000FEF770FBA0EB0800B04200D8EEB9012F17
:1035200014D02068806925EA00000004000C14D043
:10353000C4F8309084F83DA084F83E90206C40F0B0
:103540002000206484F83C900120DDE72068406979
:1035500025EA00000004000CEAD1012F08D0206801
:10356000806925EA00000004000CB2D10020CBE7FE
:103570002068406925EA00000004000CF6D0A8E7A6
:1035800070B504460D4616461FE02046FFF798FE2C
:1035900008B1012070BD681C17D0FEF72BFB801B03
:1035A000A84200D88DB920684069C04300060CD5F8
:1035B000002044F8300F20216173A073216941F08D
:1035C000200121612073012070BD20684069C04343
:1035D0000006DAD4002070BD3EB5002400940194AA
:1035E000029410480E49016084600125057304753A
:1035F0004FF46021C16144600561FDF795FE08B19B
:10360000FDF732FD022000900195029469460548BD
:10361000FDF702FE002801D0FDF726FD3EBD0000AB
:10362000002401404410002008B50948416941F0D8
:1036300001014161406900F0010000900022114643
:103640000F20FEF7E1FCBDE808400F20FEF7CEBCDE
:10365000001002402DE9F04385B00024019402944B
:10366000039404942F48816941F0200181618169AC
:1036700001F020010091816941F0040181618169BB
:1036800001F004010091816941F0080181618069C4
:1036900000F008000090DFF8908000224AF220013C
:1036A0004046FEF7A0FA0122DFF88090D7033946A2
:1036B0004846FEF798FA012210214046FEF793FA99
:1036C0001020019002940125039501A94846FEF7B8
:1036D00093F94AF210000190029503940226049691
:1036E00001A94046FEF788F944F2080001900294CF
:1036F000039501A94046FEF77FF9019702950394CF
:103700000320049001A94846FEF776F92020019095
:1037100002950396049601A94046FEF76DF905B09F
:10372000BDE8F08300100240000C01400008014099
:1037300010B50D480B4901600C49416000218160C2
:10374000C1604FF48042026141618161C1610162E7
:10375000FEF756FA002803D0BDE81040FDF784BC00
:1037600010BD00000054004074100020801A0600B4
:1037700010B586B000240294039404940594009438
:1037800001941448124901604721416084604FF65A
:10379000FF71C160046144618461FFF74DF808B1B5
:1037A000FDF762FC4FF48050029002A90948FFF730
:1037B000BFF808B1FDF758FC00940194694605482C
:1037C000FFF70CF8002801D0FDF74EFC06B010BD45
:1037D000002C0140C810002010B58CB0242103A893
:1037E000FCF7C9FC00240194029413484FF0804177
:1037F00001600121416084604FF6FF72C260046184
:1038000084610391049405910694079408940991A6
:103810000A940B9403A9FFF7FFF808B1FDF724FC05
:103820000194029401A90448FEF7D8FF002801D0B2
:10383000FDF71AFC0CB010BD1011002010B586B0B9
:103840000024029403940494059400940194144871
:103850001249016041F61F41416084600921C16045
:1038600004618461FEF7E8FF08B1FDF7FDFB4FF44A
:103870008050029002A90A48FFF75AF808B1FDF7F4
:10388000F3FB0094019469460548FEF7A7FF002862
:1038900001D0FDF7E9FB06B010BD000000040040B8
:1038A0005811002010B50C480A4901604FF4E1316D
:1038B000416000218160C16001610C22426181612F
:1038C000C161FFF7F1FB002803D0BDE81040FDF710
:1038D000CBBB10BD00380140A0110020FEE7000066
:1038E00070B588B02B4D95F9000000280DDB05F16F
:1038F000400454F8200000F0E9FD95F9001054F858
:103900002120002100F032FD06E023A000F0DEFDC2
:1039100024A2002100F07CFD264E7068FCF7B3FE67
:1039200004460D463068FCF7AEFE02460B4622A167
:1039300003A8CDE9004501F0A1FA03AA0221002065
:1039400000F066FDF068FCF79EFE04460D46B06888
:10395000FCF799FE02460B461BA103A8CDE90045E2
:1039600001F08CFA03AA0421002000F051FD306917
:10397000FCF789FE02460B4618A103A801F07EFA67
:1039800003AA0621002000F043FD00F0B1FD08B0BD
:1039900070BD0000A80A002020204E554C4C20206D
:1039A00000000000202020204E554C4C20202020DC
:1039B00000000000E40F0020553A252E3266204911
:1039C0003A252E326620200050413A252E326620BC
:1039D00050463A252E3266202000000045413A2507
:1039E00066202020202000003EB53A4C0025E079DA
:1039F000002806D0052138A000F0CAFB012800D11C
:103A0000E57138A0D0E900128068CDE9001202907B
:103A10006A460021142000F0A9FCA27934A168466E
:103A200001F02CFA6A4600215A2000F0F1FC94F9CA
:103A300004004FF0FF3510B1012814D025E0A07824
:103A4000E07040B16078401CC0B26070022804D3BE
:103A50000220607001E00120A070617926A001F0D1
:103A6000FDF9257111E0A078E0700146401E0328A1
:103A700001D8A07004E019B9607808B1401E6070E8
:103A800061791DA001F0EAF92571A078401C00EBD6
:103A90004000C006010EE078401C00EB4000C0066C
:103AA000000E01F00DFFA078E0700A4D60785835E7
:103AB000032155F82020002000F058FC60780621F2
:103AC000401C55F82020002000F050FC00F010FDB4
:103AD0003EBD0000A80A0020717569745F7374759B
:103AE00064790000B5E7C6F7BCECB2E20000000064
:103AF00025642525202000007461736B7374756440
:103B000079203D2025640D0A000000002DE9F04FCA
:103B10008FB014227B490AA8FCF714FB0AA800F016
:103B2000D5FC0AAA002100F021FC774C04F118070B
:103B3000207AD8B13868FCF7A6FD02460B4673A17F
:103B40000AA801F09BF90AAA0321322000F060FCC8
:103B50007868FCF798FD02460B466EA10AA801F0B2
:103B60008DF90AAA0621322000F052FC207A50B1C9
:103B70000026751E4FF0010801280CD002282BD01A
:103B8000032875D0AAE000F00DFE64A000F092FAC0
:103B900000F0E4FCA2E094F9040010B1012806D082
:103BA00009E0A078E07084F80280257103E0A07835
:103BB000E070A6702571A078401C00EB4000C006A4
:103BC000010EE078401C00EB4000C006000E01F042
:103BD00077FEA078E07081E094F90400DFF8489166
:103BE000DFF848B1524910B101281ED02FE0A67865
:103BF00066B157F82600FCF7ECFA47F826004D4965
:103C0000884201DB47F82610257120E03868FCF770
:103C10003AFD4A465B46FCF766FBFCF747FD386019
:103C200045498842F0DB3960EEE794F802A0DFF8FE
:103C30000C81BAF1000F1CD057F82A00FCF71BFBCF
:103C400047F82A00404501D347F82A602571A07A39
:103C5000002843D03AA10AA801F010F9A0780AAAD6
:103C6000401C00EB4000C1B2322000F0D1FB35E037
:103C70000DE03868FCF707FD4A465B46FCF7D4FBCD
:103C8000FCF714FD38604045E0D33E60DEE778681D
:103C9000FCF7F9FC05460E463868FCF7F4FCCDE964
:103CA000005602460B4628A001F0D8F87868FCF7C9
:103CB000EAFC05460E463868FCF7E5FCCDE90056FF
:103CC00002460B4626A102A801F0D8F80A2102A854
:103CD00000F05EFA012812D0022020720A4C032163
:103CE00010340020226800F041FB062100206268A9
:103CF00000F03CFB00F0FCFB0FB0BDE8F08F84F857
:103D00000880EBE768680008A80A0020252E3266C4
:103D100020200000252E306620200000495F504101
:103D20005F5650543F0000009A9999999999B93F6C
:103D30000000C8420080094500002041000080804A
:103D40002020202020202000B5E7C1F73A252E3280
:103D50006609B9A6C2CA3A252E30660D0A000000CF
:103D6000495F50415F5650543A252E32667C252ECD
:103D7000306600002DE9F04395B07F4C0227002506
:103D8000E079002806D105217CA000F001FA012885
:103D900024D0E571E079022822D0DFF8EC814FF4DD
:103DA000004905AE01287DD004287CD1627977A135
:103DB0000DA801F063F805210DA800F0E9F901282C
:103DC000F9D1002174A2084600F022FB00F090FB1C
:103DD0004FF4FA70FDF7FEFD4F46C9E0E771D9E7F1
:103DE00094F904004FF0FF3210B1012810D01DE00B
:103DF000A078E070032807D36078401CC0B26070E0
:103E0000022803D3677001E0401CA07022710DE00E
:103E1000A078E0700146401E022801D8A07004E09E
:103E200019B9607808B1401E60702271A07800074F
:103E3000010EE0780007000E01F042FDA078E0706E
:103E4000627858A1521C684601F018F800216A46B1
:103E5000084600F0DDFA627852A1921C684601F033
:103E60000DF86A460221002000F0D2FA62784DA1D6
:103E7000D21C684601F002F86A460421002000F0D6
:103E8000C7FA627847A1121D684600F0F7FF6A463C
:103E90000621002000F0BCFA374D6078403555F817
:103EA000202001E021E01DE00021142000F05EFA56
:103EB00060780221401C55F82020142000F056FAAA
:103EC00060780421801C55F82020142000F04EFA60
:103ED00060780621C01C55F82020142000F046FA16
:103EE00000F006FB15B0BDE8F08362792EA10DA8A5
:103EF00000F0C4FF32210DA800F04AF9012801D0DA
:103F0000E771EFE700212AA2084600F02FFA2AA263
:103F10000021202000F07CFA00F0EAFA4F4611E080
:103F200005A800F0ADF868B9002239464046FDF713
:103F30005AFE05A8FCF7C6FE0022B554521CD2B2A8
:103F4000202AFAD3E0790228EAD1CBE705A800F0CD
:103F500097F868B9002239464046FDF744FE05A8A7
:103F6000FCF7B0FE0022B554521CD2B2202AFAD37C
:103F7000E0790228EAD1B5E7A80A0020656E7465E9
:103F8000725F73747564790000080140436C656169
:103F9000723A256400000000436C6561722E2E2E7B
:103FA0000000000025642E0049443A25640000000A
:103FB000D1A7CFB0D6D000002E2E2E00FEE70000F5
:103FC0001FB50FA003C8CDE90201052202A93020C8
:103FD00000F0A0F805226946102000F015F8002036
:103FE00069460A5CA52A03D1401CC0B20528F8D353
:103FF000052802D0012004B010BD0020FBE700001E
:10400000A5A5A5A5A50000002DE9F04104460D4693
:104010001646DFF83880002210214046FDF7E3FD08
:10402000204600F0CBFA0746002405E0002000F00F
:10403000C5FA2855641CE4B2B442F7D3012210211A
:104040004046FDF7D0FD3846BDE8F081000C014048
:1040500070B50546094C002210212046FDF7C3FD2E
:10406000284600F0ABFA002000F0A8FA054601222D
:1040700010212046FDF7B7FD284670BD000C014019
:1040800070B505460720FFF7E3FF044621462720C9
:1040900000F064F860060AD5202229466120FFF767
:1040A000B3FFFF21E22000F059F8002070BD01208D
:1040B00070BD000070B50546154C00222021204639
:1040C000FDF791FD20222946A02000F023F80122CF
:1040D00020212046FDF787FD08212046FDF77CFDC5
:1040E0000028F9D10720FFF7B3FF04462146272017
:1040F00000F034F8E00605D5FF21E12000F02EF8AD
:10410000102070BDA00601D5202070BDFF2070BD1D
:10411000000C01402DE9F04104460D461646DFF83B
:104120003880002210214046FDF75DFD204600F05A
:1041300045FA0746002405E015F8010B00F03EFAA9
:10414000641CE4B2B442F7D3012210214046FDF7CB
:104150004AFD3846BDE8F081000C014070B50646C6
:104160000D460A4C002210212046FDF73CFD30464A
:1041700000F024FA0646284600F020FA0122102119
:104180002046FDF730FD304670BD0000000C0140B8
:1041900030B589B005460C461EE000F003FB28460A
:1041A000FFF788FF00F0DAF95020FDF713FC2946ED
:1041B0000CA000F053FE01A8FFF762FF0028FAD020
:1041C00001A90BA000F04AFE0DA101A8FBF7DEFF3C
:1041D00010B1012009B030BD641EE4B2DDD2002070
:1041E000F8E7000064617461203D2025730D0A002A
:1041F00052585F41727231203D2025730D0A000034
:104200004F4B000010B50021074C0022002004EBAA
:10421000C1131A54401C80B28028FAD3491CC9B279
:104220000829F3D310BD0000C40B0020CB0801F017
:10423000070101228A40034901EBC3110B5C934340
:104240000B547047C40B0020CB0801F0070101227A
:104250008A40034901EBC3110B5C13430B547047B5
:10426000C40B002010B54FF4FA70FDF7B3FB00212A
:10427000AE2000F023F90021022000F01FF90021F8
:10428000102000F01BF90021D52000F017F90021C3
:10429000802000F013F90021A82000F00FF9002180
:1042A0003F2000F00BF90021D32000F007F9002196
:1042B000084600F003F90021402000F0FFF800213B
:1042C000A12000F0FBF80021C82000F0F7F8002141
:1042D000DA2000F0F3F80021122000F0EFF80021BE
:1042E000812000F0EBF80021CF2000F0E7F800215A
:1042F000D92000F0E3F80021F12000F0DFF80021E0
:10430000DB2000F0DBF80021302000F0D7F800219E
:10431000202000F0D3F80021A62000F0CFF80021E3
:104320008D2000F0CBF80021142000F0C7F8002108
:10433000AF2000F0C3F8FFF765FFBDE8104000F0C4
:10434000D7B810B5044608460021B03000F0B6F8E2
:10435000102040EA1410002100F0B0F804F00F0023
:10436000BDE81040002100F0A9B8000070B5044677
:104370000E46154610E0702C02D9B61CF6B2002489
:10438000062E0CD820280BD02A463146204600F0B5
:1043900057F81034E4B2AD1C28780028EBD170BD7A
:1043A00004A23146204600F033F81034E4B26D1C0C
:1043B000F2E7000020200000F0B50023203AD2B23E
:1043C0007F2802D90020891CC9B2104E0E4C06EB82
:1043D000C11503EB021700EB030CE75D05F80C7049
:1043E0005B1CDBB2082BF4D3491CCBB2002106EBDB
:1043F000C31301EB0215254446182D7A9D55491C1F
:10440000C9B20829F5D3F0BDC8040020C40B0020B0
:10441000F0B504460E46174600250CE0314620460E
:10442000FFF7CAFF0834E4B2782C02D90024B61C86
:10443000F6B26D1CEDB27A5D002AEFD1F0BD00003E
:104440002DE9F0474FF024090024DFF868A0DFF8D9
:1044500068802AE004EB041315781AF81360B5425B
:1044600021D10AEB430556786B789E421BD100237D
:1044700008EBC116EF1800EB030CBF7806F80C70C0
:104480005B1CDBB2102BF5D3491CC9B2002308EB2F
:10449000C116EF1800EB030CBF7C06F80C705B1C18
:1044A000DBB2102BF5D3641CE4B24C45D2D3BDE88B
:1044B000F087000000000020C40B0020002902D07B
:1044C000C0B200F0B9BCC0B200F0A4BC002104E04E
:1044D0001031C9B2202A08D0801C0278002AF7D1F6
:1044E000C1F18000C0B240087047401CF5E70000F1
:1044F0002DE9F0474FF0000900260025DFF8308055
:104500003146761CF6B24846FFF71BFF002408EB45
:10451000C5170121385DFFF7D1FF641CA4B2802CC0
:10452000F7D36D1CEDB2082DEAD3BDE8F08700008B
:10453000C40B00207047000008B507494FF4FA5239
:104540000968B1FBF2F14143009100BF0098411EA0
:104550000091FAD208BD0000BC0B002010B5154C2C
:10456000002220212046FDF73EFB052212492A2089
:10457000FFF7D0FD01212120FFF7F0FD01212220CE
:10458000FFF7ECFD28212520FFF7E8FD2021312051
:10459000FFF7E4FD07212620FFF7E0FD0F21202093
:1045A000FFF7DCFD20460122BDE810402021FDF789
:1045B0001ABB0000000C01407C6800082DE9F047A0
:1045C00005460024DFF858804FF400494FF40057A7
:1045D0004FF4804A280605D5012249464046FDF79A
:1045E00002FB04E0002249464046FDF7FCFA68065B
:1045F000060E012239464046FDF7F5FA514640467F
:10460000FDF7EAFA40EA0605002239464046FDF782
:10461000EAFA641CA4B2082CDCD32846BDE8F08773
:10462000000C01407047FDF787BC30B593B02821DE
:1046300009A8FBF7A0FD142104A8FBF79CFD0024AA
:1046400000940194029403940121099108040A90B2
:104650000B940D910225109511904FF4E0101290DB
:1046600009A8FDF7E3FE08B1FCF7FEFC0F2004905B
:10467000059506944FF4806007900894022104A8E1
:10468000FDF7DEFD08B1FCF7EFFC00954FF40040AC
:1046900002906846FDF74EFD002801D0FCF7E4FCCF
:1046A00013B030BD704700000148FEF78CBA00001F
:1046B0005811002070B50268174C184D4FF0804615
:1046C000A04203D0B04201D0A84203D122F070032F
:1046D0004A681A43A04203D0B04201D0A84203D195
:1046E00022F44073CA681A434B6922F080021A43CD
:1046F00002608A68C2620A688262A04201D10969C6
:104700000163012141610169C90703D0016921F0F9
:104710000101016170BD0000002C01400004004057
:1047200010B501F01F0101238B40046A9C43046211
:10473000036A8A401343036210BD10B5846824F4F1
:104740007F4442EA03220A432243826010BD82680A
:1047500022F070020A4342F007018160704710B5F1
:10476000036A046A24F001040462846924F0F004FA
:1047700044EA021423F00A020A438461026210BD73
:1047800010B5036A046A24F010040462846924F4F6
:10479000704444EA023223F0A00343EA011182612B
:1047A000016210BD10B5174C002220212046FDF7F4
:1047B0001AFA052214493020FFF7ACFC05221349F0
:1047C0002A20FFF7A7FC01212120FFF7C7FC0121C8
:1047D0002220FFF7C3FC1A212420FFF7BFFC282169
:1047E0002520FFF7BBFC07212620FFF7B7FC0E2191
:1047F0002020FFF7B3FC20460122BDE81040202115
:10480000FDF7F1B9000C0140A00B00207C68000806
:1048100070B58EB0142109A8FBF7ADFC254C00251E
:104820002146607A8A8978B101280BD122A101A89A
:1048300000F024FB0A2101A8FFF7AAFC012837D0C9
:10484000012060720EB070BD1A4E94F90430F089E8
:10485000401C81B2F07A13B1012B06D00EE0104457
:10486000A081E181FFF7CEFC08E0824202D3101A5A
:10487000A08100E0A581E181FFF7C4FC0D4D583512
:10488000E868FFF723FE0021EA68FFF76FFDFF20CD
:104890002071A2890BA109A800F0F0FA09A8FFF77E
:1048A00015FE09AA0421FFF7B3FDFFF721FEC9E7B2
:1048B0006572C7E7A80A002054696D696E673A25DA
:1048C0006400000074696D696E673A202564207386
:1048D000000000002DE9F0474FF06E09002600258A
:1048E000DFF830803146761CF6B24846FFF729FDE6
:1048F0006E2408EBC5170121385DFFF7DFFD641C4E
:10490000A4B27E2CF7D36D1CEDB2082DEAD3BDE81E
:10491000F0870000C40B002010B5406A0021C1855B
:10492000C184FEF7A7FA10BD70B5446A20684069DB
:10493000C0F3C01094F841100025212904D118B10A
:10494000E584204600F09BF820684069C0F38010A1
:1049500094F84210222904D118B1E585204600F0D0
:104960005AF8606C40F0100060642046FEF782FA4E
:1049700070BD10B50146486A096809684FF0000328
:1049800089062ED4C38501680C3151E8002F22F42A
:10499000807241E80024002CF5D10168143151E8FF
:1049A000002F22F0010241E80024002CF5D101681B
:1049B000143151E8002F22F0400241E80024002C7D
:1049C000F5D1202180F84210016B012909D101683D
:1049D0000C3151E8002F22F0100241E80024002C95
:1049E000F5D14363016B012902D0FEF7E9FB10BD4D
:1049F000818DFEF7FBF910BD10B5406A01214163BE
:104A0000016B012902D0FEF7DCFB10BD818D490846
:104A1000FEF7ECF910BD01680C3151E8002F22F4CB
:104A2000907241E80023002BF5D10168143151E860
:104A3000002F22F0010241E80023002BF5D1016B89
:104A4000012909D101680C3151E8002F22F0100230
:104A500041E80023002BF5D1202180F842100021ED
:104A60000163704710B50168CA6822F04002CA604D
:104A7000202180F84110FEF7A5FB002010BD016841
:104A80000C3151E8002F22F0C00241E80023002B36
:104A9000F5D1202180F84110704708B590F84210F8
:104AA000222901D0022008BD82684FF480539A4227
:104AB00001D1016921B1816A9A421DD052B10BE046
:104AC000816A02685268C2F308020A80816A891CFE
:104AD000816209E002697AB10268526802F07F02DD
:104AE0000A70816A491C8162C18D491E0904090C42
:104AF000C18505D0002008BD026852680A70F0E741
:104B00000168CA6822F02002CA600168CA6822F4FB
:104B10008072CA6001684A6922F001024A6120215C
:104B200080F8421000214163026B012A03D0FEF796
:104B300047FB002008BD016301680C3151E8002FDC
:104B400022F0100241E80023002BF5D101680A6829
:104B5000D20602D50A6849680091818DFEF746F9B0
:104B6000E7E7000070B5044620680169E26821F4B7
:104B7000405111430161A16820690143606901430B
:104B80002068C26841F20C639A430A43C2602068FD
:104B90004169A26921F44071114341611E492068B5
:104BA000884202D1FDF70CFC01E0FDF7F9FB00EBB8
:104BB000C00101EB0010616864228900B0FBF1F3D1
:104BC000B3FBF2F36FF018067343B0FBF1F5B0FBE3
:104BD000F1F605EB8305322303EB0515B5FBF2F582
:104BE000B6FBF2F605F0F00505EB0615B0FBF1F6A5
:104BF000B0FBF1F0B0FBF2F06FF01801484306EBA8
:104C0000800003EB0010B0FBF2F0216800F00F0011
:104C10002844886070BD00000038014037B582B07C
:104C200004461346039AA262A385002060642221F1
:104C300084F84210E56B1B49A962E56B1A49E962E9
:104C4000E56B1A492963E16B48632168E06B091D34
:104C5000FCF786FE2068016840680190206948B131
:104C600020680C3050E8001F41F4807140E80012C9
:104C7000002AF5D12068143050E8001F41F00101EE
:104C800040E80012002AF5D12068143050E8001FD7
:104C900041F0400140E80012002AF5D105B00020A3
:104CA00030BD000073490008F9490008294900088F
:104CB00090F84110212901D0022070478168B1F598
:104CC000805F01D1016961B1016A4A1C0262026818
:104CD00009785160C18C491E0904090CC1840AD0AD
:104CE00013E0016A02680988C1F308015160016A92
:104CF000891C0162EEE70168CA6822F08002CA607E
:104D00000068C16841F04001C160002070470000A8
:104D10000148FEF7B1B80000A0110020FEE7000036
:104D2000F0B589B005460122D1033148FCF75BFF9D
:104D30000024304F284657F82410FBF727FA18B9FB
:104D4000641CE4B2032CF5D32B48E4B1012C22D02F
:104D5000022C1ED10024032557F82420611C27A013
:104D600000F07CF8601CB0FBF5F1064605FB110075
:104D700088B357F82400FBF725FA0C2821D921A085
:104D800000F06CF82FE0816801A8884701A8FBF7C4
:104D9000F5FE09B0F0BD816801A88847002001A98F
:104DA0000A5C3A2A03D0401CC0B22028F8D320283D
:104DB000EFD20844401CFEF707FA0E498C39087000
:104DC000E7E757F82400FBF7FDF9052804D20EA009
:104DD00000F044F807E003E00CA000F03FF802E028
:104DE0000BA000F03BF8F4B2032CB5D3D1E70000E0
:104DF00000080140340B0020880B002025642E257C
:104E000073000000090000000909090009090000F9
:104E10000D0A000001B584B0012104AACDE90021EA
:104E200064200B460290002278210248FCF7B4FF70
:104E300005B000BD7410002001B584B0012104AAA2
:104E4000CDE9002164200B460290402278210248DF
:104E5000FCF7A2FF05B000BD741000200FB4054B95
:104E600010B503A9044A029800F08EF910BC5DF851
:104E700014FB0000B55B00089C0B00200FB4084B2E
:104E800010B504A902AA039800F07EF9044602A90D
:104E9000002000F010FD204610BC5DF814FB00005F
:104EA000B7580008490050EAC12018BF04204A0D35
:104EB00018BF40F0010040F2FF72B2EB515F08BF33
:104EC00040F00200012808BF052070470907090EBD
:104ED000002804DB00F1E02080F80014704700F0A7
:104EE0000F0000F1E02080F8141D70472DE9F0411B
:104EF0004F1E00EBC7010446D1E9000115461E46CE
:104F000037F006020DD02A463346FBF793FA7F1E90
:104F100004EBC703D3E90023FBF7E5F937F00602FA
:104F2000F1D1022F25D0042F13D0062F18BFBDE8D2
:104F3000F0812A463346FBF77DFAD4E90A23FBF7D2
:104F4000D2F92A463346FBF775FAD4E90823FBF772
:104F5000CAF92A463346FBF76DFAD4E90623FBF774
:104F6000C2F92A463346FBF765FAD4E90423FBF776
:104F7000BAF92A463346FBF75DFAD4E90223FBF778
:104F8000B2F92A463346FBF755FAD4E90023BDE8C7
:104F9000F041FBF7A8B90000002213461046014972
:104FA000FBF7BABA0000F03FFBF79DB900221346A9
:104FB00010461146FBF7B0BA40F2013200204FF024
:104FC000E041FBF78BBC0000024A00201107FBF711
:104FD00085BC000001FDFFFF02E008C8121F08C1E8
:104FE000002AFAD170477047002001E001C1121F6A
:104FF000002AFBD17047000001490860704700009B
:10500000C00B00202DE9FF5F82B00021DDE90430F4
:10501000020DDDF840B0034318D044F61050A2F260
:10502000FF3242431514119801281FD0A5EB0B0045
:10503000401C5FEA000A4FF000064E4FDFF838913F
:10504000B046504615D5CAF1000413E0119801246A
:105050004AA3012801D16FEA0B010298119AC0E915
:105060000031C0E9024206B0BDE8F09FCBF100007C
:10507000DFE704460021404A491842EB0450CDE9DD
:10508000001012E0E00707D032463B464046494652
:10509000FBF7D0F98046894632463B461046194612
:1050A000FBF7C8F906460F466410002CEAD1DDE98B
:1050B0000401DDE90023BAF1000F06DAFBF7BAF9C3
:1050C00042464B46FBF7B6F905E0FBF725FA4246A8
:1050D0004B46FBF721FA04460E460022284BFBF70D
:1050E0003DFC03D84FF0FF30014607E00022254B7E
:1050F00020463146FBF7F7F8FBF718FC102409E0CF
:10510000002C0ADB0A220023FBF702FB039B303250
:105110001A55641E50EA0102F2D1641C039AC4F1CC
:1051200011031444119A012A03D0012208430DD11E
:105130000AE0084304D000204FF0110B119072E7F1
:10514000A3EB0B056D1E0DE05B4504DD4FF0000287
:1051500005F1010504E003DA4FF00002A5F10105B5
:10516000002AECD002981199C0E90231C0E900454B
:1051700079E70000000014400000F03F300000001C
:105180000000F0430000E03F2DE9FF4F95B09B4643
:105190008946064600250FE2252877D100242746B8
:1051A000F84A0121059400E0044316F8013F203B32
:1051B00001FA03F01042F7D130782A2811D06FF0AD
:1051C0002F033078A0F13002092A16D8059A44F04E
:1051D000020402EB820203EB42021044761C0590AB
:1051E000EFE759F8042B0592002A03DA504244F401
:1051F0000054059044F00204761C30782E2816D115
:1052000016F8010F44F004042A280DD06FF02F0285
:105210003078A0F13003092B09D807EB870302EBA4
:105220004303C718761CF3E759F8047B761C3078E3
:105230006C280FD006DC4C2817D068280DD06A28BF
:1052400014D104E0742810D07A280FD10DE044F472
:1052500000140AE044F4801401E044F4401472782D
:10526000824202D104F58014761C761C30786628C0
:105270000BD013DC582877D009DC002875D04528DE
:10528000F6D04628F4D047281AD19DE118E06328CB
:1052900035D0642879D0652812D195E1702873D073
:1052A00008DC6728F1D069286FD06E280DD06F28F0
:1052B00006D1B5E073282CD0752875D0782874D025
:1052C0005A46179990476D1C75E1C4F302500228A5
:1052D00009D003280DD0D9F8001004280DD00D6096
:1052E00009F1040967E1D9F80010EA17C1E9005291
:1052F000F6E7D9F800100D80F2E70D70F0E719F825
:10530000041B8DF8001000208DF80100EA460120F2
:1053100003E059F804AB4FF0FF3061074FF0000194
:1053200002D40DE008F101018846B9420FDA804548
:10533000F8DB1AF808100029F4D108E008F101019F
:1053400088468142FADB1AF808100029F6D1059840
:105350005B46A0EB080721463846179A00F094FAFE
:10536000284400EB080507E04DE029E10DE01AF8BC
:10537000010B5A4617999047B8F10108F7D25B46DE
:1053800021463846179A13E142E00A220092C4F3FC
:1053900002524FF0000A022A08D059F804CB032A1F
:1053A0004FEAEC710AD00DE029E02AE009F107018B
:1053B00021F00702F2E802C1914609E00FFA8CFCE5
:1053C0004FEAEC71042A03D14FFA8CFC4FEAEC71DE
:1053D000002907DA0A460021DCF1000C61EB02012A
:1053E0002D2202E0220504D52B228DF80420012273
:1053F00003E0E20701D02022F7E7904659E00A21B6
:1054000002E010220DE010214FF0000A00910BE0A5
:1054100010224FF0000A44F004040827009203E031
:1054200008224FF0000A0092C4F30252022A05D06B
:1054300059F804CB0021032A08D009E009F107013B
:1054400021F00702F2E802C1914605E01FFA8CFC48
:10545000042A01D10CF0FF0C4FF00008220728D5D8
:10546000702806D0009B83F0100353EA0A0305D08E
:105470000EE040228DF80420012208E05CEA0102DF
:1054800006D030228DF804208DF8050002229046C7
:10549000009B83F0080353EA0A030AD15CEA010285
:1054A00001D1620705D530228DF804204FF00108A4
:1054B0007F1E582804D034A003900EA802900DE05F
:1054C00036A0F9E753466046009AFBF721F9844677
:1054D0000398825C0298401E029002705CEA010010
:1054E000F0D1029806A9081A00F1200A600702D537
:1054F00024F4803400E00127574502DDA7EB0A00C1
:1055000000E0002000EB0A01009005984144401A99
:105510000590E00306D45B462146179A059800F0F3
:10552000B3F90544002706E001A85A46C05D179963
:1055300090476D1C7F1C4745F6DBE0030CD55B46AE
:105540002146179A059800F09FF9054404E03020A1
:105550005A46179990476D1C0099481E00900029E3
:10556000F5DC08E0029802995A460078491C02913D
:10557000179990476D1CBAF10001AAF1010AF1DCFC
:1055800065E1000009280100303132333435363707
:10559000383961626364656600000000303132337F
:1055A000343536373839414243444546000000001F
:1055B00000F058F90544761C307800287FF4ECADF3
:1055C00019B02846BDE8F08F620700D4062709F11C
:1055D000070222F0070CFCE80223E14603F0004832
:1055E0005FEA080C02D00FF2702C0DE05FEA045C59
:1055F00002D50FF2682C07E05FEAC47C02D00FF2FC
:10560000602C01E0AFF2700C4FF0FF3823F0004344
:10561000CDF850C065280CD006DC452809D04628B6
:105620001DD047283DD13DE0662818D067287ED19F
:1056300038E00021112F01DB112000E0781CCDE9BA
:10564000000106A90EA8FFF7DDFCDDE90F010E9AA7
:1056500003910021009207F1010A04914DE04FF0FF
:1056600000400097CDE9011006A90EA8FFF7CAFC7B
:10567000DDE90F0203920E9B11990022DDF80CA0C8
:105680000093049211B9791C00EB010AB7EB0A00F0
:1056900004D4C0F1FF3007F1010A0490AAEB07001F
:1056A000019044E0012F00DA01270021112F01DDD4
:1056B000112000E03846CDE9000106A90EA8FFF749
:1056C000A1FCDDE90F010E9A0391002104910092E3
:1056D000BA4621070CD40399514500DA8A46BAF13B
:1056E000010F05DD009AAAF10101515C302908D0B3
:1056F000B84202DA10F1040F06DA0121CDE90110F7
:1057000015E0AAF10101E9E7002805DC049901444C
:105710000491AAEB000102E0411C514500DD8A46DC
:105720000499401A401C01904FF00040029020075D
:1057300004D40198504501DBCDF8048000208DF899
:105740004F0002980DF14F07B0F1004F25D02B20EC
:105750000E9002984FF0020800280CDA40420290A6
:105760002D200E9007E00A210298FAF7BBFF303196
:10577000029007F8011DB8F10001A8F10108F2DC60
:1057800002980028EFD1791E0E980870307800F04A
:10579000200040F0450007F8020D12A8C01B00F1E0
:1057A00007081498007800B1012000EB0A01019865
:1057B00001EBE07105984144401A401E0590E0035A
:1057C00006D45B462146179A059800F05DF805441B
:1057D0001498007818B15A46179990476D1CE00349
:1057E00024D55B462146179A059800F04DF80544EC
:1057F0001CE00498002807DBDDE90301884203DD93
:105800000098405C179901E0179930205A4690475C
:10581000049805F10105401C04900198401E019078
:1058200004D12E205A46179990476D1CBAF10001F9
:10583000AAF1010ADDDC05E017F8010B5A461799B9
:1058400090476D1CB8F10001A8F10108F4DC5B463B
:105850002146179A0598ABE62D0000002B000000AA
:10586000200000002DE9F041044600251E461746A1
:10587000880404D405E039462020B0476D1C641E1E
:10588000F9D52846BDE8F0812DE9F0410446002510
:105890001E469046C80301D5302700E02027880423
:1058A00004D505E041463846B0476D1C641EF9D565
:1058B0002846BDE8F0810A68531C0B6010707047E1
:1058C000F8B504460D461E4F1E4EAC4209D14FF0AE
:1058D00010031A4621464FF06E00009700F06AFA56
:1058E000F8BD14D828E04FF010031A4621464FF0B7
:1058F0006E00009600F05EFA641EE4B210231A46B1
:1059000021466E20009700F055FAFEF7E3FFAC4207
:10591000E9D1F8BD10231A4621466E20009600F00A
:1059200049FA641CE4B210231A4621466E200097FF
:1059300000F040FAFEF7CEFFAC42EBD1F8BD00001C
:10594000C80A0020C40F002000EB8100826070476D
:1059500070B50446606880470146E078420702D08F
:105960002288521C2280B1EBD01F10D04FF0005281
:1059700002EBB0104FEAB060C0F3C202E070052A3B
:1059800008D361F3C71020F03800E07002E020F087
:105990003800E070E078002500F0070106291CD2ED
:1059A000DFE801F00322498D1BAAC0F38011B1EB9F
:1059B000D01F13D1A07820F0F000A070A16809B129
:1059C000204688472580A07820F00F00401CA0705A
:1059D000E07820F00700401CE07070BDA07820F057
:1059E000F0008030A07070BDC0F38011B1EBD01F0B
:1059F0000FD0A07820F0F0001030A070E16809B15D
:105A0000204688472580E07820F00700801CE07061
:105A100070BD2088C828FBD9A07820F0F000503055
:105A2000A070E16909B120468847E07820F00700BE
:105A3000401DE07070BDC0F38011B1EBD01F12D1DA
:105A4000A16809B120468847A0784FF0805101EB4A
:105A500030104FEA3070A0702580E07820F0070009
:105A6000C01CE07070BD20883C28FBD9A07800F0F5
:105A70000F01012904D002290BD0032912D019E00B
:105A800020F0F0002030A070216999B120468847AD
:105A900010E020F0F0003030A070616951B1204674
:105AA000884707E020F0F0004030A070A16909B1FC
:105AB00020468847E07820F00700E07070BDC0F312
:105AC0008011B1EBD01FF9D0A07820F0F000103099
:105AD000A070E16809B12046884720883C2806D29A
